{
  "contractName": "QRNGLedger",
  "abi": [
    {
      "inputs": [
        {
          "internalType": "uint256",
          "name": "",
          "type": "uint256"
        }
      ],
      "name": "entries",
      "outputs": [
        {
          "internalType": "uint256",
          "name": "nodeId",
          "type": "uint256"
        },
        {
          "internalType": "string",
          "name": "randomResult",
          "type": "string"
        }
      ],
      "stateMutability": "view",
      "type": "function",
      "constant": true
    },
    {
      "inputs": [
        {
          "internalType": "uint256",
          "name": "_nodeId",
          "type": "uint256"
        },
        {
          "internalType": "string",
          "name": "_randomResult",
          "type": "string"
        }
      ],
      "name": "addEntry",
      "outputs": [],
      "stateMutability": "nonpayable",
      "type": "function"
    },
    {
      "inputs": [],
      "name": "getEntries",
      "outputs": [
        {
          "components": [
            {
              "internalType": "uint256",
              "name": "nodeId",
              "type": "uint256"
            },
            {
              "internalType": "string",
              "name": "randomResult",
              "type": "string"
            }
          ],
          "internalType": "struct QRNGLedger.QRNGEntry[]",
          "name": "",
          "type": "tuple[]"
        }
      ],
      "stateMutability": "view",
      "type": "function",
      "constant": true
    }
  ],
  "bytecode": "0x608060405234801561001057600080fd5b5061081b806100206000396000f3fe608060405234801561001057600080fd5b50600436106100415760003560e01c806317be85c314610046578063b30906d414610064578063f2334c6614610095575b600080fd5b61004e6100b1565b60405161005b91906105c8565b60405180910390f35b61007e600480360381019061007991906103f5565b6101ac565b60405161008c9291906105ea565b60405180910390f35b6100af60048036038101906100aa919061041e565b610268565b005b60606000805480602002602001604051908101604052809291908181526020016000905b828210156101a35783829060005260206000209060020201604051806040016040529081600082015481526020016001820180546101129061072d565b80601f016020809104026020016040519081016040528092919081815260200182805461013e9061072d565b801561018b5780601f106101605761010080835404028352916020019161018b565b820191906000526020600020905b81548152906001019060200180831161016e57829003601f168201915b505050505081525050815260200190600101906100d5565b50505050905090565b600081815481106101bc57600080fd5b90600052602060002090600202016000915090508060000154908060010180546101e59061072d565b80601f01602080910402602001604051908101604052809291908181526020018280546102119061072d565b801561025e5780601f106102335761010080835404028352916020019161025e565b820191906000526020600020905b81548152906001019060200180831161024157829003601f168201915b5050505050905082565b600060405180604001604052808481526020018381525090806001815401808255809150506001900390600052602060002090600202016000909190919091506000820151816000015560208201518160010190805190602001906102ce9291906102d5565b5050505050565b8280546102e19061072d565b90600052602060002090601f016020900481019282610303576000855561034a565b82601f1061031c57805160ff191683800117855561034a565b8280016001018555821561034a579182015b8281111561034957825182559160200191906001019061032e565b5b509050610357919061035b565b5090565b5b8082111561037457600081600090555060010161035c565b5090565b600061038b6103868461064b565b61061a565b9050828152602081018484840111156103a357600080fd5b6103ae8482856106eb565b509392505050565b600082601f8301126103c757600080fd5b81356103d7848260208601610378565b91505092915050565b6000813590506103ef816107ce565b92915050565b60006020828403121561040757600080fd5b6000610415848285016103e0565b91505092915050565b6000806040838503121561043157600080fd5b600061043f858286016103e0565b925050602083013567ffffffffffffffff81111561045c57600080fd5b610468858286016103b6565b9150509250929050565b600061047e838361056d565b905092915050565b60006104918261068b565b61049b81856106ae565b9350836020820285016104ad8561067b565b8060005b858110156104e957848403895281516104ca8582610472565b94506104d5836106a1565b925060208a019950506001810190506104b1565b50829750879550505050505092915050565b600061050682610696565b61051081856106bf565b93506105208185602086016106fa565b610529816107bd565b840191505092915050565b600061053f82610696565b61054981856106d0565b93506105598185602086016106fa565b610562816107bd565b840191505092915050565b600060408301600083015161058560008601826105aa565b506020830151848203602086015261059d82826104fb565b9150508091505092915050565b6105b3816106e1565b82525050565b6105c2816106e1565b82525050565b600060208201905081810360008301526105e28184610486565b905092915050565b60006040820190506105ff60008301856105b9565b81810360208301526106118184610534565b90509392505050565b6000604051905081810181811067ffffffffffffffff821117156106415761064061078e565b5b8060405250919050565b600067ffffffffffffffff8211156106665761066561078e565b5b601f19601f8301169050602081019050919050565b6000819050602082019050919050565b600081519050919050565b600081519050919050565b6000602082019050919050565b600082825260208201905092915050565b600082825260208201905092915050565b600082825260208201905092915050565b6000819050919050565b82818337600083830152505050565b60005b838110156107185780820151818401526020810190506106fd565b83811115610727576000848401525b50505050565b6000600282049050600182168061074557607f821691505b602082108114156107595761075861075f565b5b50919050565b7f4e487b7100000000000000000000000000000000000000000000000000000000600052602260045260246000fd5b7f4e487b7100000000000000000000000000000000000000000000000000000000600052604160045260246000fd5b6000601f19601f8301169050919050565b6107d7816106e1565b81146107e257600080fd5b5056fea2646970667358221220bf15c1584ad4f38aee5e3aaa1fd91363ef240e046c8ce7cd7424b8e4a70bcd2d64736f6c63430008000033",
  "immutableReferences": {},
  "source": "// SPDX-License-Identifier: MIT\npragma solidity ^0.8.0;\n\ncontract QRNGLedger {\n    struct QRNGEntry {\n        uint nodeId;\n        string randomResult;\n    }\n\n    QRNGEntry[] public entries;\n\n    function addEntry(uint _nodeId, string memory _randomResult) public {\n        entries.push(QRNGEntry({\n            nodeId: _nodeId,\n            randomResult: _randomResult\n        }));\n    }\n\n    function getEntries() public view returns (QRNGEntry[] memory) {\n        return entries;\n    }\n}\n",
  "sourcePath": "/workspaces/QuantumBlockchainAutomation/contracts/QRNGLedger.sol",
  "compiler": {
    "name": "solc",
    "version": "0.8.0+commit.c7dfd78e.Emscripten.clang"
  },
  "schemaVersion": "3.4.16",
  "updatedAt": "2024-09-11T09:26:43.995Z",
  "networkType": "ethereum",
  "devdoc": {
    "kind": "dev",
    "methods": {},
    "version": 1
  },
  "userdoc": {
    "kind": "user",
    "methods": {},
    "version": 1
  }
}