{
  "contractName": "QRNGLedger",
  "abi": [
    {
      "inputs": [
        {
          "internalType": "uint256",
          "name": "",
          "type": "uint256"
        }
      ],
      "name": "entries",
      "outputs": [
        {
          "internalType": "uint256",
          "name": "nodeId",
          "type": "uint256"
        },
        {
          "internalType": "string",
          "name": "randomResult",
          "type": "string"
        }
      ],
      "stateMutability": "view",
      "type": "function"
    },
    {
      "inputs": [
        {
          "internalType": "uint256",
          "name": "_nodeId",
          "type": "uint256"
        },
        {
          "internalType": "string",
          "name": "_randomResult",
          "type": "string"
        }
      ],
      "name": "addEntry",
      "outputs": [],
      "stateMutability": "nonpayable",
      "type": "function"
    },
    {
      "inputs": [],
      "name": "getEntries",
      "outputs": [
        {
          "components": [
            {
              "internalType": "uint256",
              "name": "nodeId",
              "type": "uint256"
            },
            {
              "internalType": "string",
              "name": "randomResult",
              "type": "string"
            }
          ],
          "internalType": "struct QRNGLedger.QRNGEntry[]",
          "name": "",
          "type": "tuple[]"
        }
      ],
      "stateMutability": "view",
      "type": "function"
    }
  ],
  "bytecode": "0x608060405234801561000f575f80fd5b506109dd8061001d5f395ff3fe608060405234801561000f575f80fd5b506004361061003f575f3560e01c806317be85c314610043578063b30906d414610061578063f2334c6614610092575b5f80fd5b61004b6100ae565b604051610058919061044d565b60405180910390f35b61007b600480360381019061007691906104a8565b6101a2565b60405161008992919061052a565b60405180910390f35b6100ac60048036038101906100a79190610684565b610256565b005b60605f805480602002602001604051908101604052809291908181526020015f905b82821015610199578382905f5260205f2090600202016040518060400160405290815f820154815260200160018201805461010a9061070b565b80601f01602080910402602001604051908101604052809291908181526020018280546101369061070b565b80156101815780601f1061015857610100808354040283529160200191610181565b820191905f5260205f20905b81548152906001019060200180831161016457829003601f168201915b505050505081525050815260200190600101906100d0565b50505050905090565b5f81815481106101b0575f80fd5b905f5260205f2090600202015f91509050805f0154908060010180546101d59061070b565b80601f01602080910402602001604051908101604052809291908181526020018280546102019061070b565b801561024c5780601f106102235761010080835404028352916020019161024c565b820191905f5260205f20905b81548152906001019060200180831161022f57829003601f168201915b5050505050905082565b5f604051806040016040528084815260200183815250908060018154018082558091505060019003905f5260205f2090600202015f909190919091505f820151815f015560208201518160010190816102af91906108d8565b5050505050565b5f81519050919050565b5f82825260208201905092915050565b5f819050602082019050919050565b5f819050919050565b6102f1816102df565b82525050565b5f81519050919050565b5f82825260208201905092915050565b5f5b8381101561032e578082015181840152602081019050610313565b5f8484015250505050565b5f601f19601f8301169050919050565b5f610353826102f7565b61035d8185610301565b935061036d818560208601610311565b61037681610339565b840191505092915050565b5f604083015f8301516103965f8601826102e8565b50602083015184820360208601526103ae8282610349565b9150508091505092915050565b5f6103c68383610381565b905092915050565b5f602082019050919050565b5f6103e4826102b6565b6103ee81856102c0565b935083602082028501610400856102d0565b805f5b8581101561043b578484038952815161041c85826103bb565b9450610427836103ce565b925060208a01995050600181019050610403565b50829750879550505050505092915050565b5f6020820190508181035f83015261046581846103da565b905092915050565b5f604051905090565b5f80fd5b5f80fd5b610487816102df565b8114610491575f80fd5b50565b5f813590506104a28161047e565b92915050565b5f602082840312156104bd576104bc610476565b5b5f6104ca84828501610494565b91505092915050565b6104dc816102df565b82525050565b5f82825260208201905092915050565b5f6104fc826102f7565b61050681856104e2565b9350610516818560208601610311565b61051f81610339565b840191505092915050565b5f60408201905061053d5f8301856104d3565b818103602083015261054f81846104f2565b90509392505050565b5f80fd5b5f80fd5b7f4e487b71000000000000000000000000000000000000000000000000000000005f52604160045260245ffd5b61059682610339565b810181811067ffffffffffffffff821117156105b5576105b4610560565b5b80604052505050565b5f6105c761046d565b90506105d3828261058d565b919050565b5f67ffffffffffffffff8211156105f2576105f1610560565b5b6105fb82610339565b9050602081019050919050565b828183375f83830152505050565b5f610628610623846105d8565b6105be565b9050828152602081018484840111156106445761064361055c565b5b61064f848285610608565b509392505050565b5f82601f83011261066b5761066a610558565b5b813561067b848260208601610616565b91505092915050565b5f806040838503121561069a57610699610476565b5b5f6106a785828601610494565b925050602083013567ffffffffffffffff8111156106c8576106c761047a565b5b6106d485828601610657565b9150509250929050565b7f4e487b71000000000000000000000000000000000000000000000000000000005f52602260045260245ffd5b5f600282049050600182168061072257607f821691505b602082108103610735576107346106de565b5b50919050565b5f819050815f5260205f209050919050565b5f6020601f8301049050919050565b5f82821b905092915050565b5f600883026107977fffffffffffffffffffffffffffffffffffffffffffffffffffffffffffffffff8261075c565b6107a1868361075c565b95508019841693508086168417925050509392505050565b5f819050919050565b5f6107dc6107d76107d2846102df565b6107b9565b6102df565b9050919050565b5f819050919050565b6107f5836107c2565b610809610801826107e3565b848454610768565b825550505050565b5f90565b61081d610811565b6108288184846107ec565b505050565b5b8181101561084b576108405f82610815565b60018101905061082e565b5050565b601f821115610890576108618161073b565b61086a8461074d565b81016020851015610879578190505b61088d6108858561074d565b83018261082d565b50505b505050565b5f82821c905092915050565b5f6108b05f1984600802610895565b1980831691505092915050565b5f6108c883836108a1565b9150826002028217905092915050565b6108e1826102f7565b67ffffffffffffffff8111156108fa576108f9610560565b5b610904825461070b565b61090f82828561084f565b5f60209050601f831160018114610940575f841561092e578287015190505b61093885826108bd565b86555061099f565b601f19841661094e8661073b565b5f5b8281101561097557848901518255600182019150602085019450602081019050610950565b86831015610992578489015161098e601f8916826108a1565b8355505b6001600288020188555050505b50505050505056fea2646970667358221220702966a4bb6f6981918314ab8a5ba58ea33c1f4b58c276884d079f591a41d53c64736f6c63430008150033",
  "immutableReferences": {},
  "source": "// SPDX-License-Identifier: MIT\npragma solidity ^0.8.0;\n\ncontract QRNGLedger {\n    struct QRNGEntry {\n        uint nodeId;\n        string randomResult;\n    }\n\n    QRNGEntry[] public entries;\n\n    function addEntry(uint _nodeId, string memory _randomResult) public {\n        entries.push(QRNGEntry({\n            nodeId: _nodeId,\n            randomResult: _randomResult\n        }));\n    }\n\n    function getEntries() public view returns (QRNGEntry[] memory) {\n        return entries;\n    }\n}\n",
  "sourcePath": "/workspaces/QuantumBlockchainAutomation/contracts/QRNGLedger.sol",
  "compiler": {
    "name": "solc",
    "version": "0.8.21+commit.d9974bed.Emscripten.clang"
  },
  "schemaVersion": "3.4.16",
  "updatedAt": "2024-09-11T06:41:14.572Z",
  "devdoc": {
    "kind": "dev",
    "methods": {},
    "version": 1
  },
  "userdoc": {
    "kind": "user",
    "methods": {},
    "version": 1
  }
}