{
  "contractName": "QuantumEnhanced",
  "abi": [
    {
      "inputs": [
        {
          "internalType": "uint256",
          "name": "_quantumResult",
          "type": "uint256"
        }
      ],
      "stateMutability": "nonpayable",
      "type": "constructor"
    },
    {
      "inputs": [],
      "name": "quantumResult",
      "outputs": [
        {
          "internalType": "uint256",
          "name": "",
          "type": "uint256"
        }
      ],
      "stateMutability": "view",
      "type": "function"
    },
    {
      "inputs": [],
      "name": "getQuantumResult",
      "outputs": [
        {
          "internalType": "uint256",
          "name": "",
          "type": "uint256"
        }
      ],
      "stateMutability": "view",
      "type": "function"
    }
  ],
  "bytecode": "0x608060405234801561001057600080fd5b5060405161018c38038061018c83398181016040528101906100329190610054565b806000819055505061009e565b60008151905061004e81610087565b92915050565b60006020828403121561006657600080fd5b60006100748482850161003f565b91505092915050565b6000819050919050565b6100908161007d565b811461009b57600080fd5b50565b60e0806100ac6000396000f3fe6080604052348015600f57600080fd5b506004361060325760003560e01c806372969b521460375780639d26652e146051575b600080fd5b603d606b565b604051604891906087565b60405180910390f35b60576071565b604051606291906087565b60405180910390f35b60005481565b60008054905090565b60818160a0565b82525050565b6000602082019050609a6000830184607a565b92915050565b600081905091905056fea26469706673582212202631ec582d905977e83ff418af905bc561e425af1f8b8f73de0de3a3227e039d64736f6c63430008000033",
  "immutableReferences": {},
  "source": "// SPDX-License-Identifier: MIT\npragma solidity ^0.8.0;\n\ncontract QuantumEnhanced {\n    uint256 public quantumResult;\n\n    constructor(uint256 _quantumResult) {\n        quantumResult = _quantumResult;\n    }\n\n    function getQuantumResult() public view returns (uint256) {\n        return quantumResult;\n    }\n}\n",
  "sourcePath": "/workspaces/QuantumBlockchainAutomation/contracts/QuantumEnhanced.sol",
  "compiler": {
    "name": "solc",
    "version": "0.8.0+commit.c7dfd78e.Emscripten.clang"
  },
  "schemaVersion": "3.4.16",
  "updatedAt": "2024-09-11T08:16:21.950Z",
  "devdoc": {
    "kind": "dev",
    "methods": {},
    "version": 1
  },
  "userdoc": {
    "kind": "user",
    "methods": {},
    "version": 1
  }
}