{
  "contractName": "QuantumContracts",
  "abi": [
    {
      "inputs": [],
      "name": "quantumResult",
      "outputs": [
        {
          "internalType": "uint256",
          "name": "",
          "type": "uint256"
        }
      ],
      "stateMutability": "view",
      "type": "function"
    },
    {
      "inputs": [
        {
          "internalType": "uint256",
          "name": "_quantumResult",
          "type": "uint256"
        }
      ],
      "name": "setQuantumResult",
      "outputs": [],
      "stateMutability": "nonpayable",
      "type": "function"
    },
    {
      "inputs": [],
      "name": "getQuantumResult",
      "outputs": [
        {
          "internalType": "uint256",
          "name": "",
          "type": "uint256"
        }
      ],
      "stateMutability": "view",
      "type": "function"
    }
  ],
  "bytecode": "0x608060405234801561001057600080fd5b50610176806100206000396000f3fe608060405234801561001057600080fd5b50600436106100415760003560e01c80630c3202041461004657806372969b52146100625780639d26652e14610080575b600080fd5b610060600480360381019061005b91906100cc565b61009e565b005b61006a6100a8565b6040516100779190610104565b60405180910390f35b6100886100ae565b6040516100959190610104565b60405180910390f35b8060008190555050565b60005481565b60008054905090565b6000813590506100c681610129565b92915050565b6000602082840312156100de57600080fd5b60006100ec848285016100b7565b91505092915050565b6100fe8161011f565b82525050565b600060208201905061011960008301846100f5565b92915050565b6000819050919050565b6101328161011f565b811461013d57600080fd5b5056fea2646970667358221220a5782e497dbf1212c069908deda1cfdb18c58eb12134bc66275f53f7f5ba224264736f6c63430008000033",
  "immutableReferences": {},
  "source": "// SPDX-License-Identifier: MIT\npragma solidity ^0.8.0;\n\ncontract QuantumContracts {\n    uint256 public quantumResult;\n\n    // Function to set quantum-computed result in contract\n    function setQuantumResult(uint256 _quantumResult) public {\n        quantumResult = _quantumResult;\n    }\n\n    // Function to retrieve the quantum result\n    function getQuantumResult() public view returns (uint256) {\n        return quantumResult;\n    }\n}\n",
  "sourcePath": "/workspaces/QuantumBlockchainAutomation/contracts/QuantumContracts.sol",
  "compiler": {
    "name": "solc",
    "version": "0.8.0+commit.c7dfd78e.Emscripten.clang"
  },
  "schemaVersion": "3.4.16",
  "updatedAt": "2024-09-11T08:16:21.949Z",
  "devdoc": {
    "kind": "dev",
    "methods": {},
    "version": 1
  },
  "userdoc": {
    "kind": "user",
    "methods": {},
    "version": 1
  }
}